:020000040800F2
:10000000000002205DA70008530D0008550D0008F0
:10001000570D0008590D00085B0D00080000000096
:10002000000000000000000000000000C186000881
:100030005D0D000800000000618700083F82000895
:10004000B1A70008B1A70008B1A70008B1A7000830
:10005000B1A70008B1A70008B1A70008B1A7000820
:10006000B1A70008B1A70008B1A70008610D0008FA
:10007000B1A70008B1A70008B1A70008B1A7000800
:10008000B1A70008B1A70008B1A70008B1A70008F0
:10009000B1A70008B1A70008B1A70008B1A70008E0
:1000A000B1A70008B1A70008B1A70008B1A70008D0
:1000B000710D0008B1A70008B1A70008B1A700089A
:1000C000B1A70008B1A70008B1A70008B1A70008B0
:1000D000B1A70008B1A70008B1A70008B1A70008A0
:1000E000B1A70008B1A7000800000000B1A70008F0
:1000F000B1A70008B1A70008B1A70008B1A7000880
:10010000B1A70008B1A70008B1A70008B1A700086F
:10011000B1A70008B1A70008B1A70008B1A700085F
:10012000B1A70008B1A70008B1A70008B1A700084F
:10013000B1A70008B1A70008B1A70008B1A700083F
:1001400000000000000000000000000000000000AF
:10015000B1A70008B1A70008B1A70008B1A700081F
:10016000B1A70008B1A70008B1A70008B1A700080F
:10017000B1A70008B1A70008B1A70008000000005F
:10018000B1A70008B1A70008B1A70008B1A70008EF
:10019000B1A70008B1A70008B1A70008B1A70008DF
:1001A000B1A70008B1A70008B1A70008B1A70008CF
:1001B000B1A70008B1A70008B1A70008B1A70008BF
:1001C000B1A70008B1A70008B1A70008B1A70008AF
:1001D000B1A70008B1A70008B1A70008B1A700089F
:1001E000B1A70008B1A70008B1A70008B1A700088F
:1001F000B1A70008B1A70008B1A70008B1A700087F
:10020000B1A70008B1A70008B1A70008B1A700086E
:10021000B1A70008B1A70008B1A70008B1A700085E
:10022000B1A70008B1A70008B1A7000800000000AE
:10023000B1A70008B1A7000800000000B1A700089E
:10024000B1A70008B1A70008B1A70008B1A700082E
:10025000B1A70008B1A70008B1A70008B1A700081E
:10026000B1A70008B1A70008B1A70008B1A700080E
:10027000B1A70008B1A70008B1A70008000000005E
:10028000B1A70008B1A70008B1A70008000000004E
:0802900000000000B1A7000806
:1002A00001F0FF01102A2BDB10F0070F08D010F827
:1002B000013B013A8B422DD010F0070F42B3F6D12B
:1002C000F0B441EA012141EA014122F007047FF044
:1002D00000070023F0E80256083C85EA010586EA9B
:1002E000010685FA47F5A3FA87F586FA47F6A5FAD7
:1002F00087F68EB9EED1F0BC01F0FF0102F00702E3
:1003000032B110F8013B013A83EA010313B1F8D18D
:100310000020704701387047002D06BF354603386E
:10032000073815F0010F07D1013015F4807F02BFA7
:10033000013015F4C03F0130F0BC0138704700BFF8
:10034000034613F8012B002AFBD1181A0138704715
:100350000348044B834202D0034B03B11847704754
:10036000E0010020E0010020000000000548064BED
:100370001B1AD90F01EBA301491002D0034B03B1A3
:1003800018477047E0010020E00100200000000055
:1003900010B5064C237843B9FFF7DAFF044B13B1CD
:1003A0000448AFF300800123237010BDE00100205A
:1003B0000000000018D3000808B5054B1BB1054923
:1003C0000548AFF30080BDE80840FFF7CFBF00BF8E
:1003D00000000000E401002018D3000810B584B02C
:1003E0000024009401940294039401F0B1FA0123D3
:1003F0008DF800308DF8014001941F228DF80820FF
:1004000087228DF809208DF80A408DF80B408DF871
:100410000C308DF80D308DF80E408DF80F40684689
:1004200001F0B4FA042001F0A1FA04B010BD0000FC
:100430002DE9F0418AB000240594069407940894AD
:1004400009943E4BD3F8E02042F00102C3F8E020CB
:10045000D3F8E02002F001020192019AD3F8E020E3
:1004600042F00802C3F8E020D3F8E02002F00802CE
:100470000292029AD3F8E02042F00402C3F8E0208E
:10048000D3F8E02002F004020392039AD3F8E020AC
:1004900042F01002C3F8E020D3F8E03003F010037C
:1004A0000493049BDFF8A080224648F202014046F4
:1004B00004F055F8224F22464FF6F071384604F00A
:1004C0004EF848F202030593012606960794089415
:1004D00005A9404603F02CFF4FF47F430593069691
:1004E0000794089405A9384603F022FF4FF480735F
:1004F00005930225069507940894099405A940469A
:1005000003F016FF082305930694079505A93846BE
:1005100003F00EFFF023059306960795089405A9AE
:10052000384603F005FF05960694079505A905488A
:1005300003F0FEFE0AB0BDE8F08100BF004402589F
:10054000000C0258001002580000025800B583B099
:100550000B4BD3F8D82042F00102C3F8D820D3F8CF
:10056000D83003F001030193019B002205210B20E9
:1005700001F0DAF90B2001F0E7F903B05DF804FBB4
:100580000044025810B508F01BFD4FF400430E4A1A
:100590000E490F4808F0A6FD0E490F4809F0AAF8C9
:1005A00007F088FE044609F0D9FA07F083FE001B25
:1005B0000A4A10606328F3D807F07CFE201A6430E2
:1005C00007F0E0FEECE700BF00000258CC0300207B
:1005D000540400205C0500204805002084C1002050
:1005E00008B508F08BFF012007F0CCFEF9E700000A
:1005F00084B00191019B002B12DD019B094A82FB13
:100600000312DB17C3EBA20303930023029343629D
:1006100002E0029B01330293426A039B9A42F8D3A1
:1006200004B070476766666670B506460D460024DE
:100630000BE0C4EBC4031E4A13440122B3F80110BB
:10064000D3F8030003F08BFF0134072CF1D9002409
:10065000032C10D804EB4401164B03EB410045FA80
:1006600004F202F0010233F81110D0F8020003F096
:1006700076FF0134ECE73378C3EBC3030C4A134431
:100680000022B3F80110D3F8030003F068FF0A4812
:10069000036823F440330360C36823F40033C3606A
:1006A000082103F055FF003818BF012070BD00BFBE
:1006B00030D300088ED30008000C02582DE9F04119
:1006C00080460E46174600240BE0C4EBC4031C4DC5
:1006D0002B440122B3F80110D3F8030003F03FFFCD
:1006E0000134072CF1D90024032C10D804EB440169
:1006F000144B03EB410046FA04F202F0010233F816
:100700001110D0F8020003F02AFF0134ECE798F84A
:100710000030C3EBC3030A4A13440022B3F80110AC
:10072000D3F8030003F01BFF0748036843F480334A
:1007300003603A46082103F012FFBDE8F08100BFD4
:1007400030D300088ED30008000C025800B583B0E7
:1007500013464FF47A7200920A460146044805F0A7
:10076000B9FD10B903B05DF804FB4FF49670F9E7DA
:100770005404002008B50368B3F1804F00D008BDD1
:1007800005F01EF8FBE7000008B572B60F4C022119
:10079000204603F0EAFE4FF4FA7005F023F8022138
:1007A000204603F0E2FE642005F01CF802212046FA
:1007B00003F0DBFE642005F015F80221204603F06B
:1007C000D4FE4FF4967005F00DF8DFE700000258F4
:1007D00000B58BB02422002101A80AF0FEFD0D48CF
:1007E0000D4B036001F0FEF878B900220192162348
:1007F0000293039201230493059201A9054801F095
:1008000097F920B90BB05DF804FBFFF7BDFFFFF7C8
:10081000BBFF00BF480500200074004008B5084831
:10082000084B03600023436083604FF48042C26042
:100830000361436106F039F900B908BDFFF7A4FF71
:10084000540400200070005200B589B000230493C6
:100850000593069307930193029303931548164A51
:10086000026040F2CF72426083604FF6FF72C26056
:1008700003614361836100F0D7FEA0B94FF4805358
:10088000049304A90B4800F00DFF70B920230193D5
:1008900000230293039301A9064800F09FFF30B99B
:1008A00009B05DF804FBFFF76FFFFFF76DFFFFF77F
:1008B0006BFF00BF800300200000014000B589B03D
:1008C00000230493059306930793019302930393E4
:1008D0001248134A02604360836040F2AF42C26034
:1008E0000361836100F0A0FE90B94FF4805304933C
:1008F00004A90A4800F0D6FE60B9002301930393CF
:1009000001A9064800F06AFF30B909B05DF804FBA0
:10091000FFF73AFFFFF738FFFFF736FFE802002046
:100920000008004008B51648164B03604FF48003DA
:1009300043604FF4003383600723C3604FF00073BC
:1009400003614FF0807343614FF0806383614FF028
:100950008042C2610023036243628362C3624263D6
:100960008363C363036443648364C364036543654F
:10097000836508F0FDF800B908BDFFF705FF00BF6B
:10098000CC0300200014005800B589B00023049364
:100990000593069307930193029303931248134A16
:1009A00002604360836040F2AF42C26003618361D2
:1009B00000F03AFE90B94FF48053049304A90A481A
:1009C00000F070FE60B900230193039301A906486B
:1009D00000F004FF30B909B05DF804FBFFF7D4FE66
:1009E000FFF7D2FEFFF7D0FE3403002000040040E2
:1009F00000B585B000230193029303930D480E4A7E
:100A000002604360836040F6C312C260836100F0FD
:100A10000BFE58B9202301930023039301A9054835
:100A200000F0DCFE20B905B05DF804FBFFF7ACFE7A
:100A3000FFF7AAFE500200200010004000B589B068
:100A40000023049305930693079301930293039362
:100A50001348144A02607722426083604FF0FF32ED
:100A6000C2600361836100F0DFFD90B94FF48053F1
:100A7000049304A90A4800F015FE60B9002301930D
:100A8000039301A9064800F0A9FE30B909B05DF84A
:100A900004FBFFF779FEFFF777FEFFF775FE00BF57
:100AA0009C020020000C004000B585B0002301939B
:100AB000029303930D480E4A0260436083604FF631
:100AC000FF72C260836100F0AFFD50B90023019353
:100AD000039301A9054800F081FE20B905B05DF837
:100AE00004FBFFF751FEFFF74FFE00BF040200209A
:100AF0000014004000B58BB00023079308930993BE
:100B000000930193029303930493059306931D4866
:100B10001D4A026043608360C36004220261037562
:100B2000437501228261037743628362C362036378
:100B3000436380F83830C26309F03CFCE0B900231D
:100B4000079307A90F4809F061FDB8B90F4B00934F
:100B5000062301930023029340F2FF7203920422C2
:100B6000049205938DF819306946064809F04AF851
:100B700030B90BB05DF804FBFFF706FEFFF704FE8B
:100B8000FFF702FE5C050020002002400800900CE8
:100B900000B59DB04C22002109A80AF01EFC2022BD
:100BA000002101A80AF019FC022004F0B1FD002385
:100BB0000093274B9A6942F440429A619B6903F47F
:100BC00040430093234BDA6A42F00102DA62DB6AA7
:100BD00003F001030093009B1D4B9B6913F4005F1E
:100BE000FAD00223099301220C9240220D92129313
:100BF00000221392042114913C2115911693802117
:100C0000179118930C2319931A921B9209A801F0BB
:100C100061F8C8B93F230193032302930023039390
:100C2000092204920593069307930893012101A8D2
:100C300001F0F8FC50B94FF480220021084601F081
:100C4000A3FB1DB05DF804FBFFF79EFDFFF79CFDC5
:100C5000004802580004005838B5FFF7BFFB04F005
:100C600081FDFFF795FFFFF7E3FBFFF76FFCFFF751
:100C7000AFFDFFF7D3FDFFF7E7FDFFF71FFEFFF71F
:100C800051FEFFF781FEFFF7B3FEFFF7D7FEFFF738
:100C90000BFFFFF72FFF002402211F4803F065FC24
:100CA00001211E4803F054FC002814BF0125002533
:100CB00004F0010418BF002424B9C82004F092FDF8
:100CC0002C46E9E701220221134803F048FC1448AE
:100CD00000F0DAFA134800F0D7FA134800F0D4FA1B
:100CE000124800F0D1FA124800F0CEFA114800F094
:100CF000CBFA07F0B1FA104A0021104807F0E4FAE5
:100D00000F4B18600F4A00210F4807F0DDFA0F4B18
:100D1000186007F0B3FAFEE700000258001002580E
:100D20008003002034030020E80200209C02002001
:100D3000500200200402002064D400088505000849
:100D40000002002040D40008E1050008FC0100205A
:100D50007047FEE7FEE7FEE7FEE7FEE770470000AC
:100D600008B5024804F038F908BD00BFD0040020DF
:100D700008B5024800F018FB08BD00BFC005002000
:100D800000B583B00A4BD3F8F42042F00202C3F856
:100D9000F420D3F8F43003F002030193019B002206
:100DA0000F216FF0010000F0BFFD03B05DF804FB00
:100DB0000044025810B5B8B0044600213391349174
:100DC000359136913791C02202A80AF006FB2268BD
:100DD0001F4B9A4201D038B010BD4FF400220023BF
:100DE000CDE90223052304931E2305938023069354
:100DF000022307930893C023099302A801F0C2FEBF
:100E000018BB144BD3F8D82042F02002C3F8D820E6
:100E1000D3F8D82002F020020092009AD3F8E02004
:100E200042F00102C3F8E020D3F8E03003F0010300
:100E30000193019B40233393032334930023359381
:100E400033A9054803F074FAC5E7FFF79DFCD8E71E
:100E500000200240004402580000025810B588B03B
:100E60000023039304930593069307930268254B8D
:100E70009A4201D008B010BD0446234BD3F8E820B5
:100E800042F00052C3F8E820D3F8E82002F0005204
:100E90000192019AD3F8E02042F00102C3F8E02069
:100EA000D3F8E03003F001030293029B1023039375
:100EB0000323049303A9154803F03AFA1448154B89
:100EC000036043234360402383600023C3604FF4E7
:100ED000806202614FF4006242614FF4005282610D
:100EE0004FF48072C2614FF440320262436203F0F9
:100EF00055FD18B9064BA3609C63BBE7FFF744FCA4
:100F0000F8E700BF00740040004402580000025897
:100F1000D004002010000240F0B5BBB00446002110
:100F200035913691379138913991C02204A80AF051
:100F300054FA2268284B9A4201D03BB0F0BD4FF4DE
:100F400080320023CDE9042304A801F01BFE002811
:100F50003ED1224BD3F8D42042F48032C3F8D420BF
:100F6000D3F8D42002F480320192019AD3F8E02021
:100F700042F00402C3F8E020D3F8E02002F00402BB
:100F80000292029AD3F8E02042F00802C3F8E0206F
:100F9000D3F8E03003F008030393039B4FF4F853B6
:100FA00035930227369701263796032538950C246A
:100FB000399435A90A4803F0BBF9042335933697D1
:100FC00037963895399435A9064803F0B1F9B4E756
:100FD000FFF7DAFBBDE700BF007000520044025883
:100FE00000080258000C025810B5B8B004460021A1
:100FF00033913491359136913791C02202A80AF08D
:10100000ECF92268214B9A4201D038B010BD4FF460
:1010100080420023CDE9022332230C93C8230D9391
:1010200002230E930F220F9210934FF000532E9332
:1010300002A801F0A7FD30BB154BD3F8F42042F015
:101040002002C3F8F420D3F8F42002F0200200922A
:10105000009AD3F8E02042F00102C3F8E020D3F870
:10106000E03003F001030193019BA023339302239B
:1010700034930023359336930823379333A90548D7
:1010800003F056F9C1E7FFF77FFBD5E700140058DE
:10109000004402580000025886B00368334A934265
:1010A0001CD0334A934228D0324A934233D0324A3A
:1010B00093423ED0314A934249D0314A93421AD1A9
:1010C000304BD3F8E82042F02002C3F8E820D3F8F0
:1010D000E83003F020030593059B0CE0294BD3F87F
:1010E000F02042F00102C3F8F020D3F8F03003F012
:1010F00001030093009B06B07047224BD3F8E82011
:1011000042F00202C3F8E820D3F8E83003F002030B
:101110000193019BEFE71B4BD3F8E82042F0040258
:10112000C3F8E820D3F8E83003F004030293029BED
:10113000E1E7144BD3F8E82042F00802C3F8E820B6
:10114000D3F8E83003F008030393039BD3E70D4B78
:10115000D3F8E82042F01002C3F8E820D3F8E830D2
:1011600003F010030493049BC5E700BF0000014097
:101170000004004000080040000C00400010004047
:1011800000140040004402580F2801D90120704784
:1011900010B58AB00446002201461C2000F0C4FBB2
:1011A0001C2000F0D1FB1B4B1C601B4BD3F8E8202C
:1011B00042F00102C3F8E820D3F8E83003F001035D
:1011C0000093009B01A902A801F0AAFB079BC3B9E9
:1011D00001F094FB0346114AA2FB03239B0C013B45
:1011E0000F484FF08042026040F2E732C260436035
:1011F00000230361836000F017FA30B101200AB0C8
:1012000010BD01F07BFB4300E5E7054800F080F8E6
:10121000F5E700BF040000200044025883DE1B43B2
:10122000C005002010B4036A046A24F001040462BB
:10123000846924F0F00C4CEA021223F00A030B43F9
:10124000826103625DF8044B704710B4036A046A5C
:1012500024F010040462846924F4704C4CEA0232D5
:1012600023F0A00343EA0113826103625DF8044B9B
:10127000704700008268034B13400B4343F00703A1
:10128000836070478FFFCFFF90F83D30DBB2012BBA
:1012900035D1022380F83D3003681B4AB3F1804FFB
:1012A00018BF93421DD0A2F57C42934219D002F59B
:1012B0008062934215D002F58062934211D002F50C
:1012C000784293420DD0A2F56C42934209D002F5C8
:1012D0009432934205D01A6842F001021A6000204D
:1012E00070479968094A0A40062A18BFB2F5803F3C
:1012F00007D01A6842F001021A60002070470120EE
:1013000070470020704700BF000001400700010047
:1013100090F83D30DBB2012B3AD1022380F83D300A
:101320000268D36843F00103D36003681A4AB3F13B
:10133000804F18BF93421DD0A2F57C42934219D032
:1013400002F58062934215D002F58062934211D07B
:1013500002F5784293420DD0A2F56C42934209D037
:1013600002F59432934205D01A6842F001021A60E5
:10137000002070479968094A0A40062A18BFB2F54A
:10138000803F07D01A6842F001021A6000207047BF
:101390000120704700207047000001400700010055
:1013A000704770477047704770B504460368DE6841
:1013B0001D6915F0020F10D016F0020F0DD06FF05E
:1013C00002021A610123037703689B6913F0030F7C
:1013D00064D0FFF7E6FF0023237715F0040F12D047
:1013E00016F0040F0FD023686FF004021A61022375
:1013F000237723689B6913F4407F55D02046FFF77D
:10140000D0FF0023237715F0080F12D016F0080F35
:101410000FD023686FF008021A6104232377236832
:10142000DB6913F0030F46D02046FFF7BAFF002315
:10143000237715F0100F12D016F0100F0FD023687D
:101440006FF010021A61082323772368DB6913F415
:10145000407F37D02046FFF7A4FF0023237715F005
:10146000010F02D016F0010F33D115F4025F02D044
:1014700016F0800F35D115F4807F02D016F0800F62
:1014800037D115F0400F02D016F0400F39D115F0CA
:10149000200F02D016F0200F3BD170BDFFF780FF68
:1014A0002046FFF77FFF96E72046FFF779FF2046AB
:1014B000FFF778FFA5E72046FFF772FF2046FFF70A
:1014C00071FFB4E72046FFF76BFF2046FFF76AFF86
:1014D000C3E723686FF001021A612046FFF74AF95B
:1014E000C3E723686FF402521A61204600F0C7F97F
:1014F000C1E723686FF480721A61204600F0C0F9DA
:10150000BFE723686FF040021A612046FFF74BFFE8
:10151000BDE723686FF020021A61204600F0AEF9A3
:10152000BBE7000070B40368394A904214BF002240
:101530000122B0F1804F14BF144642F00104ACB94F
:10154000344DA84214BF00250125334EB0420DD0C2
:1015500065B905F1804505F58235A84214BF00251F
:10156000012506F50066B04200D01DB123F07003DE
:101570004D682B4314BB274CA04214BF0024012408
:10158000254DA8421AD0CCB904F1804404F5823428
:10159000A04214BF0024012405F50065A8420DD027
:1015A00064B91E4CA04214BF0024012405F59A35ED
:1015B000A84203D014B91A4CA04203D123F44073BB
:1015C000CC68234323F080034C6923438C68C462B6
:1015D0000C688462134CA04208BF42F0010262B959
:1015E0000E4A904214BF0022012204F57054A0421A
:1015F00003D012B90A4A904201D10A690263026813
:1016000042F00402026001224261036070BC704734
:101610000000014000080040000400400044014078
:10162000004801400004014060B310B5044690F842
:101630003D3013B3022384F83D30214651F8040BAA
:10164000FFF770FF012384F8483084F83E3084F8B7
:101650003F3084F8403084F8413084F8423084F8D8
:10166000433084F8443084F8453084F8463084F8B8
:10167000473084F83D30002010BD80F83C30FFF743
:101680000BFDD7E70120704710B4846824F47F4C29
:1016900042EA03220A4342EA0C0282605DF8044BEC
:1016A0007047000090F83C30012B00F08F8010B59F
:1016B0000446012380F83C30022380F83D30026864
:1016C0009068434B034093600B68702B55D031D822
:1016D000502B6CD01FD8402B0AD1CA6849682068AB
:1016E000FFF7A0FD40212068FFF7C4FD002029E09E
:1016F00068D8202B03D00AD80BB1102B05D119467E
:101700002068FFF7B7FD00201CE001201AE0302B15
:10171000F5D0012016E0602B0AD1CA68496820681C
:10172000FFF793FD60212068FFF7A4FD002009E08A
:10173000012007E0B3F5005F2CD00AD8B3F5805F35
:1017400042D10020012384F83D30002384F83C304E
:1017500010BD204A9342D2D007D8B3F5801FCED017
:10176000B3F1101FCBD00120ECE71B4A9342C6D047
:1017700010329342C3D00120E4E7CB684A688968FD
:101780002068FFF781FF2268936843F07703936036
:101790000020D7E7CB684A6889682068FFF774FFA4
:1017A0002268936843F4804393600020CAE7CA68C4
:1017B00049682068FFF736FD50212068FFF75AFD81
:1017C0000020BFE70120BDE70120BBE702207047F2
:1017D0008800CEFF200010003000100090F83C2060
:1017E000012A45D070B40346012280F83C20022231
:1017F00080F83D200268506894681E4E1E4DAA4233
:1018000018BFB24203D120F470004D68284320F085
:1018100070000D68284350601A681648B2F1804F76
:1018200018BF824217D0A0F57C40824213D000F549
:10183000806082420FD000F5806082420BD000F5BC
:101840007840824207D0A0F56C40824203D000F578
:101850009430824204D124F080048968214391604D
:10186000012283F83D20002083F83C0070BC7047C3
:10187000022070470000014000040140704770479B
:1018800070470000002807DB00F01F024009012319
:101890009340024A42F82030704700BF00E100E068
:1018A000002804DB0901C9B2044B1954704700F049
:1018B0000F000901C9B2024B1954704700E400E05F
:1018C00014ED00E000B500F00700C0F1070CBCF11A
:1018D000040F28BF4FF0040C031D062B0FD9C31EA5
:1018E0004FF0FF3E0EFA0CF021EA000199400EFA8B
:1018F00003FE22EA0E0241EA02005DF804FB002327
:10190000EEE700000649CB6823F4E0631B041B0CE0
:10191000000200F4E0600343024A1A43CA607047C1
:1019200000ED00E00000FA0510B50446054BD8684C
:10193000C0F30220FFF7C6FF01462046FFF7B0FFC5
:1019400010BD00BF00ED00E008B5FFF79BFF08BD2C
:10195000BFF35F8F044B5A6A22F480325A6200222E
:10196000C3F89420704700BF00ED00E040F0010094
:10197000054BC3F894005A6A42F480325A62BFF3AE
:101980004F8FBFF36F8F704700ED00E04378144A2C
:10199000C2F89830D2F8A03023F00103C2F8A0308A
:1019A0004368C2F89C30017BC37A1B0643EA01738B
:1019B000817A43EAC143417B43EA8143817B43EA25
:1019C0004143C17B43EA0143417A43EA0123017A5F
:1019D00043EA410301780B43C2F8A030704700BFCF
:1019E00000ED00E070B110B50446037933B1022375
:1019F0002371002020610123237110BD4371FFF783
:101A00002DFAF4E70120704770B50D461146049A8F
:101A1000002861D00446407901285FD00120607120
:101A200002202071002D2FD1A0682D4EC663A06822
:101A30002C4E0664A0682C4EC6642668306840F4BC
:101A40008050306022B1042A1BD02268103201E09D
:101A500022680832002D31D12668306840F40050E9
:101A60003060A06803F06CF90023637100282ED168
:101A700021680B6805F010050122AA4013430B6092
:101A800070BD22680C32E5E7E068184EC663E06876
:101A9000174E0664E068174EC6642668306840F04A
:101AA0008050306022B1042A05D022681C32D1E770
:101AB00022681432CEE722681832CBE726683068F5
:101AC00040F000503060E06803F03AF9CCE7236959
:101AD00043F004032361D3E70120D1E70220CFE7DD
:101AE000FB1A00080D1B0008191B00089F1C0008AA
:101AF000B11C0008BD1C0008704710B5846B20465F
:101B0000FFF7FAFF0123237110BD704708B5806B02
:101B1000FFF7FBFF08BD704710B5846B236943F0E6
:101B2000040323612046FFF7F6FF0123237110BD54
:101B3000002918BF002800F0AB80F8B5164604460F
:101B40000D464379012B00F0A58001234371022348
:101B500003710B68042B16D02B69012B5FD0206812
:101B6000C16B06F010020723934021EA0301EB68E2
:101B7000012B61D0022B00F08780AB68002B40F076
:101B80008580012759E003F027FE07469EB12368B0
:101B90005A6B002A40DA03F01FFEC01B0128F6D959
:101BA00023685B6B002BF2DA236943F0080323619F
:101BB0000320207167E02268516B374B0B408BB1DB
:101BC00003F00AFEC01B0128F5D923685A6B324B7B
:101BD0001340002BEFD0236943F008032361032057
:101BE000207150E0AB6913642068836C06F010022A
:101BF00040F2FF31914023EA0103E96991400B4330
:101C000083642068C36CFF21914023EA0103296AA1
:101C100091400B43C3649FE7AA695A64E4E72168D3
:101C20008A6B06F010001F23834022EA03026B69CF
:101C3000834013438B6392E700272B68AE683343DE
:101C40003B4393400B43C363206803684FF48041D8
:101C5000914023EA010303602068016840F6FE73A7
:101C6000934021EA03016B6893400B4303602068B3
:101C70000368C02101FA02F223EA02030360012390
:101C8000237100206071F8BD0127D6E70027D4E753
:101C9000012070470220F6E700800020704710B551
:101CA000846B2046FFF7FAFF0123237110BD7047B4
:101CB00008B5806BFFF7FBFF08BD704710B5846B5C
:101CC000236943F0040323612046FFF7F6FF012355
:101CD000237110BD002800F03B8338B5044603682B
:101CE00013F0010F25D0954A136903F03803926A67
:101CF000102B15D0182B0FD06368B3F5803F3FD061
:101D0000002B54D18D4B1A6822F480321A601A6865
:101D100022F480221A6038E002F00302022AEBD19A
:101D2000864B1B6813F4003F03D06368002B00F060
:101D30001183236813F0020F00F0A3807F4A136918
:101D4000926A13F038035CD0182B57D0E368002B4D
:101D500000F0E08079490A6822F0190213430B6011
:101D600003F03AFD0546754B1B6813F0040F40F075
:101D7000AF8003F031FD401B0228F4D90320F0E2CC
:101D80006E4A136843F480331360636833B303F01F
:101D900023FD0546694B1B6813F4003FC9D103F0CE
:101DA0001BFD401BB0F5487FF4D90320D9E2B3F501
:101DB000A02F09D0614B1A6822F480321A601A6889
:101DC00022F480221A60E0E75C4B1A6842F4802219
:101DD0001A601A6842F480321A60D6E703F0FCFCFD
:101DE0000546564B1B6813F4003FA2D003F0F4FCE9
:101DF000401BB0F5487FF4D90320B2E212F0030F84
:101E0000A4D14E4B1B6813F0040F03D0E368002BE2
:101E100000F0A282494A136823F01903E1680B43DA
:101E2000136003F0D9FC0546444B1B6813F0040F04
:101E300006D103F0D1FC401B0228F5D9032090E223
:101E400003F0E4FC41F20303984212D82269402ACD
:101E500007D03A494B6823F47C3343EA02334B60A2
:101E60000FE0364A536823F47C3343F40033536065
:101E700007E0324A536823F0FE43216943EA0163D5
:101E80005360236813F0100F00F088802B4A136909
:101E900003F03803926A082B56D0182B50D0E36910
:101EA000002B00F0B880254A136843F080031360CC
:101EB00003F092FC0546214B1B6813F4807F40F031
:101EC000888003F089FC401B0228F4D9032048E2F3
:101ED00003F09CFC41F20303984212D82269402A85
:101EE00007D016494B6823F47C3343EA02334B6036
:101EF000C7E7124A536823F47C3343F4003353603A
:101F0000BFE70E4A536823F0FE43216943EA0163A9
:101F10005360B6E7094A136823F00103136003F026
:101F20005BFC0546054B1B6813F0040FA9D003F0BA
:101F300053FC401B0228F5D9032012E2004402584A
:101F400002F00302012AAAD1A14B1B6813F4807F7F
:101F500003D0E369802B40F0018203F057FC41F28B
:101F60000303984212D8226A202A07D098494B6866
:101F700023F0F84343EA82634B600FE0944A5368CE
:101F800023F0F84343F08043536007E0904AD3685E
:101F900023F07C53216A43EA0163D360236813F082
:101FA000080F60D06369002B49D0894A536F43F012
:101FB0000103536703F010FC0546854B5B6F13F07C
:101FC000020F50D103F008FC401B0228F5D9032072
:101FD000C7E103F01BFC41F20303984212D8226AC6
:101FE000202A07D07A494B6823F0F84343EA8263FA
:101FF0004B60D3E7764A536823F0F84343F08043BD
:102000005360CBE7724AD36823F07C53216A43EADA
:102010000163D360C2E76E4A136823F08003136044
:1020200003F0DAFB05466A4B1B6813F4807FB5D0DA
:1020300003F0D2FB401B0228F5D9032091E1644A4A
:10204000536F23F00103536703F0C6FB0546604B53
:102050005B6F13F0020F06D003F0BEFB401B02289B
:10206000F5D903207DE1236813F0200F29D0A3695F
:102070009BB1574A136843F48053136003F0ACFBE1
:102080000546534B1B6813F4005F1AD103F0A4FB01
:10209000401B0228F5D9032063E14D4A136823F45D
:1020A0008053136003F098FB0546494B1B6813F4FB
:1020B000005F06D003F090FB401B0228F5D90320F7
:1020C0004FE1236813F0040F21D1636A002B00F065
:1020D00047813F4A126902F03802182A00F0EE8068
:1020E000022B79D03A4A136823F08073136003F00F
:1020F00073FB0446364B1B6813F0007F00F0DC8056
:1021000003F06AFB001B0228F4D9032029E1314ABD
:10211000136843F48073136003F05EFB05462D4B98
:102120001B6813F4807F06D103F056FB401B642824
:10213000F5D9032015E1A368012B0AD00BBB244B72
:102140001A6F22F001021A671A6F22F004021A674E
:1021500004E01F4A136F43F001031367A36833B30E
:1021600003F03AFB05461A4B1B6F13F0020FACD17C
:1021700003F032FB401B41F288339842F3D903202D
:10218000EFE0052B09D0124B1A6F22F001021A67FB
:102190001A6F22F004021A67E0E70D4B1A6F42F043
:1021A00004021A671A6F42F001021A67D6E703F0B9
:1021B00013FB0546064B1B6F13F0020F85D003F08F
:1021C0000BFB401B41F288339842F3D90320C8E04F
:1021D0000044025800480258694A136823F080738B
:1021E000136003F0F9FA0546654B1B6813F0007F96
:1021F00006D003F0F1FA401B0228F5D90320B0E025
:102200005F4B996A5F4A0A40A16AE06A41EA00119D
:102210000A439A62226B013AC2F30802616B0139E8
:10222000490289B20A43A16B0139090401F4FE0194
:102230000A43E16B0139090601F0FE410A431A63C2
:10224000DA6A22F00102DA625A6B6FF3CF02A16CF4
:1022500042EAC1025A63DA6A22F00C02216C0A4394
:10226000DA62DA6A22F00202616C0A43DA62DA6A3E
:1022700042F48032DA62DA6A42F40032DA62DA6A0E
:1022800042F48022DA62DA6A42F00102DA621A6803
:1022900042F080721A6003F09FFA0446384B1B68C4
:1022A00013F0007F06D103F097FA001B0228F5D93E
:1022B000032056E0002054E0002052E0304A916AAA
:1022C000106B012B4ED001F00303A26A93424BD155
:1022D000C1F30511E36A994248D1C0F30802236BA8
:1022E000013B9A4244D1C0F34622636B013B9A42C0
:1022F00040D1C0F30642A36B013B9A423CD1C0F3EC
:102300000660E36B013B984238D11D4B5B6BC3F316
:10231000CC03A26C9A4201D1002022E0184AD36A71
:1023200023F00103D36203F057FA054603F054FA91
:10233000A842FBD0124A536B6FF3CF03A16C43EA60
:10234000C1035363D36A43F00103D362002008E062
:1023500001207047012004E0012002E0012000E09C
:10236000002038BD0120FCE70120FAE70120F8E752
:102370000120F6E70120F4E70120F2E70120F0E771
:10238000004402580CFCFFFF70B588B00C4615469F
:1023900010BB234ED6F8E03043F00103C6F8E0301E
:1023A000D6F8E03003F001030193019B4FF48073F2
:1023B00003930223049303230693002305930793B7
:1023C00003A9184801F0B4FF336923F0FE732543D5
:1023D0001D43356108B070BD114ED6F8E03043F0B2
:1023E0000403C6F8E030D6F8E03003F004030293AB
:1023F000029B4FF400730393022304930323069379
:1024000000230593079303A9074801F091FF33695F
:1024100023F07E4344EAC5141C433461DAE700BF6D
:10242000004402580000025800080258754B1B690E
:1024300003F03803102B00F0DE80182B0FD0002B98
:1024400040F0DB806F4B1B6813F0200F00F0D7804B
:102450006C4B1B68C3F3C1036B48D840704710B482
:10246000684B9A6A02F003029C6AC4F30510D96AA9
:1024700001F001015B6BC3F3CC0301FB03F307EE37
:10248000903AF8EE677A14F47C7F77D0012A4AD02C
:10249000022A76D0002A40F091805A4B1B6813F034
:1024A000200F23D057490A68C2F3C102564BD340CC
:1024B00007EE103AF8EE476A07EE100AB8EE476AE0
:1024C00086EE867A0B6BC3F3080306EE903AF8EEBD
:1024D000666A9FED4E6A67EE867A76EEA77AF7EE29
:1024E000006A77EEA67A27EE277A38E007EE100A20
:1024F000F8EE476A9FED466A86EE267A414B1B6BE3
:10250000C3F3080306EE903AF8EE666A9FED3F6A61
:1025100067EE867A76EEA77AF7EE006A77EEA67A0D
:1025200027EE277A1BE007EE100AF8EE476A9FEDC8
:10253000396A86EE267A334B1B6BC3F3080306EE2B
:10254000903AF8EE666A9FED316A67EE867A76EE2B
:10255000A77AF7EE006A77EEA67A27EE277A294B5C
:102560001B6BC3F34623013307EE903AF8EE677A0C
:10257000C7EE276AFCEEE67A17EE900A5DF8044B88
:10258000704707EE100AF8EE476A9FED236A86EE61
:10259000267A1C4B1B6BC3F3080306EE903AF8EE49
:1025A000666A9FED1A6A67EE867A76EEA77AF7EE8C
:1025B000006A77EEA67A27EE277AD0E707EE100AB0
:1025C000F8EE476A9FED136A86EE267A0D4B1B6B79
:1025D000C3F3080306EE903AF8EE666A9FED0B6AC5
:1025E00067EE867A76EEA77AF7EE006A77EEA67A3D
:1025F00027EE277AB3E70948704709487047024831
:10260000704700BF004402580090D003000000391A
:102610000024744C0024744A20BCBE4B40787D01D9
:1026200000093D00002800F0328170B50D460446D7
:102630009B4B1B6803F00F038B420BD2984A136825
:1026400023F00F030B431360136803F00F038B4257
:1026500040F01F81236813F0040F0CD02269914BC6
:102660009B6903F070039A4205D98E498B6923F068
:1026700070031A438A61236813F0080F0CD0626953
:10268000884BDB6903F070039A4205D98549CB6911
:1026900023F070031A43CA61236813F0100F0CD0A3
:1026A000A269804BDB6903F4E0639A4205D97D4956
:1026B000CB6923F4E0631A43CA61236813F0200F47
:1026C0000CD0E269774B1B6A03F070039A4205D97C
:1026D00074490B6A23F070031A430A62236813F0EB
:1026E000020F0CD0E2686F4B9B6903F00F039A4214
:1026F00005D96C498B6923F00F031A438A6123685B
:1027000013F0010F41D0674A936923F47063A16805
:102710000B4393616368022B0AD0032B27D0012B54
:102720002CD0604A126812F0040F06D10120ADE0EF
:10273000126812F4003F00F0AE805A490A6922F094
:10274000070213430B6103F047F80646554B1B691C
:1027500003F038036268B3EBC20F16D003F03CF805
:10276000801B41F288339842F0D903208EE04D4A15
:10277000126812F0007FE0D1012087E0494A126818
:1027800012F4807FD9D1012080E0236813F0020F7A
:102790000CD0E268434B9B6903F00F039A4205D2C9
:1027A00040498B6923F00F031A438A613C4B1B6835
:1027B00003F00F03AB420AD9394A136823F00F0321
:1027C0002B431360136803F00F03AB4265D12368FA
:1027D00013F0040F0CD02269324B9B6903F0700395
:1027E0009A4205D22F498B6923F070031A438A61FC
:1027F000236813F0080F0CD062692A4BDB6903F0E1
:1028000070039A4205D22749CB6923F070031A431B
:10281000CA61236813F0100F0CD0A269214BDB6949
:1028200003F4E0639A4205D21E49CB6923F4E063C6
:102830001A43CA61236813F0200F0CD0E269194BC8
:102840001B6A03F070039A4205D216490B6A23F003
:1028500070031A430A62FFF7E9FD12498B69C3F35B
:102860000323114AD35C03F01F03D8408B6903F0A4
:102870000F03D35C03F01F0320FA03F30B4A13602A
:102880000B4B18600B4B1868FEF77EFC70BD0120E7
:1028900070470120FAE70120F8E70120F6E700BFC2
:1028A000002000520044025890D400080800002084
:1028B0000C0000200400002008B5FFF7B7FD0B4A0C
:1028C0009369C3F303230A49CB5C03F01F0320FA87
:1028D00003F3926902F00F02885C00F01F0023FAF4
:1028E00000F0044A1060044A136008BD0044025816
:1028F00090D40008080000200C00002008B5FFF765
:10290000DBFF054BDB69C3F30213044AD35C03F01E
:102910001F03D84008BD00BF0044025890D40008EF
:102920003F230360114B1A6902F0070242609A6963
:1029300002F4706282609A6902F00F02C2609A69C2
:1029400002F070020261DA6902F070024261DA6933
:1029500002F4E06282611B6A03F07003C361044BFE
:102960001B6803F00F030B60704700BF0044025860
:1029700000200052404B9B6A03F00303032B79D0E5
:1029800070B505460E463C4A136823F08063136019
:1029900002F022FF0446384B1B6813F0006F06D08C
:1029A00002F01AFF031B022BF5D9032070BD324B36
:1029B0009A6A22F47C32296842EA01329A626A6891
:1029C000013AC2F30802A9680139490289B20A43EF
:1029D000E9680139090401F4FE010A432969013952
:1029E000090601F0FE410A439A63DA6A22F0C00246
:1029F00069690A43DA62DA6A22F02002A9690A43A5
:102A0000DA62DA6A22F01002DA62DA6B6FF3CF026E
:102A1000E96942EAC102DA63DA6A42F01002DA6274
:102A2000C6B91A46DB6A43F40023D362124A13681C
:102A300043F08063136002F0CFFE04460E4B1B6828
:102A400013F0006F14D102F0C7FE001B0228F5D965
:102A50000320ABE7012E05D0074AD36A43F40013E5
:102A6000D362E3E7044AD36A43F48013D362DDE719
:102A700000209BE70120704700440258404B9B6AAE
:102A800003F00303032B79D070B505460E463C4A8C
:102A9000136823F08053136002F09EFE0446384B07
:102AA0001B6813F0005F06D002F096FE031B022B9A
:102AB000F5D9032070BD324B9A6A22F07C722968E6
:102AC00042EA01529A626A68013AC2F30802A968AE
:102AD0000139490289B20A43E9680139090401F45C
:102AE000FE010A4329690139090601F0FE410A4342
:102AF0001A64DA6A22F4406269690A43DA62DA6ABD
:102B000022F40072A9690A43DA62DA6A22F4807256
:102B1000DA625A6C6FF3CF02E96942EAC1025A6481
:102B2000DA6A42F48072DA62C6B91A46DB6A43F4A2
:102B30008003D362124A136843F08053136002F09B
:102B40004BFE04460E4B1B6813F0005F14D102F0DD
:102B500043FE001B0228F5D90320ABE7012E05D068
:102B6000074AD36A43F08073D362E3E7044AD36A27
:102B700043F40003D362DDE700209BE701207047A8
:102B800000440258F8B50446036813F0006F30D0D3
:102B9000836EB3F5001F26D00ED8ABB1B3F5801FFE
:102BA00007D102210830FFF7E5FE054695B12E4614
:102BB00021E0012635461EE0B3F5401F01D1002576
:102BC00008E00126354616E0984AD36A43F40033FC
:102BD000D3620025954A136D23F44013A16E0B4375
:102BE0001365002607E002212830FFF747FF05465E
:102BF000DCE700263546236813F4807F14D0A36DEC
:102C0000042B31D8DFE803F0032229080800874AA3
:102C1000D36A43F40033D3624DBB844A136D23F06F
:102C20000703A16D0B431365236813F4007F38D0AD
:102C3000E36D802B4AD01FD833B3402B19D100212C
:102C400004F10800FFF796FE054622E0002104F19A
:102C50000800FFF78FFE0546DEE7002104F128009B
:102C6000FFF70CFF0546D7E701263546DCE72E4681
:102C7000DAE70126354614E0C02B0AD0B3F5807F91
:102C800007D0012635460CE0684AD36A43F4003386
:102C9000D36215BB654A136D23F4E073E16D0B43FA
:102CA0001365236813F4806F3CD0D4F8A830B3F5D3
:102CB000800F2FD016D8F3B1B3F5001F0FD100212C
:102CC00004F10800FFF756FE054619E0002104F163
:102CD0002800FFF7D3FE0546DBE72E46E1E7012695
:102CE00035461FE0B3F5C00F0AD0B3F5000F07D08B
:102CF0000126354616E04D4AD36A43F40033D362C9
:102D00007DB94A4A936D23F46003D4F8A8100B43AD
:102D1000936507E0002104F12800FFF7AFFE0546A8
:102D2000EEE72E46236813F4006F2BD0D4F8AC30B6
:102D3000B3F1007F53D00DD8ABB1B3F1807F06D192
:102D4000002104F10800FFF715FE054610E00126FA
:102D5000354617E0B3F1407F0AD0B3F1806F07D05A
:102D6000012635460EE0314AD36A43F40033D3627C
:102D7000002D3BD12D4A936D23F0E063D4F8AC10C5
:102D80000B439365236813F0007F13D0E36C202B73
:102D900036D030D833B1102B2AD1244AD36A43F429
:102DA0000033D3629DBB214AD36C23F03003E16C26
:102DB0000B43D364236813F4805F47D0236EB3F5CD
:102DC000005F00F08D8027D893B3B3F5805F20D1EA
:102DD000002104F10800FFF7CDFD05462DE000219C
:102DE00004F12800FFF74AFE0546C1E72E46C9E771
:102DF00001263546DEE7302BD4D001263546D9E70B
:102E0000022104F10800FFF7B5FD0546CAE72E468A
:102E1000D0E70126354619E0B3F5405F0DD0B3F594
:102E2000804F0AD00126354610E000BF004402580A
:102E3000774AD36A43F40033D362002D57D1744AE2
:102E4000136D23F4E043216E0B431365236813F4E1
:102E5000005F17D0636EB3F5003F59D04CD843B133
:102E6000B3F5803F45D1012104F10800FFF782FD51
:102E70000546002D53D1664A136D23F4E023616E9D
:102E80000B431365236813F4804F19D0D4F8B03086
:102E9000B3F1005F54D047D843B1B3F1805F40D164
:102EA000012104F10800FFF765FD0546002D4ED114
:102EB000574A936D23F0E043D4F8B0100B43936569
:102EC000236813F4004F51D0236FB3F1805F40D0DB
:102ED000B3F1005F55D0002B40D00126354645E0C8
:102EE000002104F12800FFF7C9FD0546A5E72E469D
:102EF000ACE701263546C5E7B3F5802FB9D0B3F569
:102F0000A02FB6D0B3F5403FB3D001263546B9E780
:102F1000012104F12800FFF7B1FD0546A9E72E467F
:102F2000B0E701263546CBE7B3F1804FBED0B3F111
:102F3000A04FBBD0B3F1405FB8D001263546BFE704
:102F4000012104F12800FFF799FD0546AEE72E4662
:102F5000B6E72F4AD36A43F40033D362C5B92C4A8B
:102F6000136D23F04053216F0B431365236813F057
:102F7000807F1CD0A36C032B44D8DFE803F0100B38
:102F80003C10012104F10800FFF7F4FC0546E5E7D9
:102F90002E46EBE71E4AD36A43F40033D362A5BB47
:102FA0001B4AD36C23F00303A16C0B43D364236847
:102FB00013F4800F2ED1236813F0010F00F0A680C8
:102FC000E36F282B00F2A080DFE803F08E9E9E9E28
:102FD0009E9E9E9E889E9E9E9E9E9E9E979E9E9E2E
:102FE0009E9E9E9E8E9E9E9E9E9E9E9E8E9E9E9E21
:102FF0009E9E9E9E8E00022104F10800FFF7BAFCFF
:103000000546CCE701263546D1E72E46CFE700BF7F
:1030100000440258584A136843F48073136002F066
:10302000DBFB0746544B1B6813F4807F05D102F08D
:10303000D3FBC01B6428F5D90325002D4AD14F4B83
:103040001B6FD4F8B420534013F4407F0CD04B4B8B
:103050001A6F22F44072196F41F480311967196FA9
:1030600021F4803119671A67D4F8B430B3F5807F42
:1030700015D08DBBD4F8B43003F44072B2F5407F64
:103080001ED03E4A136923F47C5313613B490B6FF6
:10309000D4F8B420C2F30B0213430B678BE702F0A2
:1030A0009BFB0746354B1B6F13F0020FE1D102F07B
:1030B00093FBC01B41F288339842F3D90325D8E72C
:1030C0002E48026922F47C522D4901EA131313435E
:1030D0000361DBE72E466EE72E466CE7012104F123
:1030E0000800FFF747FC0546E5B9244A536D23F075
:1030F0003803E16F0B43536508E0012104F1280018
:10310000FFF7BCFC0546EFE701263546236813F0C0
:10311000020F17D0A36F052B29D8DFE803F00B05AA
:10312000210B0B0B2E46F1E7012104F10800FFF7FC
:1031300021FC0546F5B9114A536D23F00703A16F31
:103140000B435365236813F0040F2CD0D4F894304C
:10315000052B00F2DC80DFE803F01B15D31B1B1BE3
:10316000012104F12800FFF789FC0546E2E701266A
:103170003546E7E72E46E5E7004802580044025886
:10318000CFFFFF00012104F10800FFF7F3FB054624
:10319000002D40F0BF80B34A936D23F00703D4F8AD
:1031A00094100B439365236813F0200F1DD0D4F8BF
:1031B0009030B3F1005F00F0C18000F2B0804BB1FD
:1031C000B3F1805F40F0A880002104F10800FFF710
:1031D000D1FB0546002D40F0B880A24A536D23F084
:1031E000E043D4F890100B435365236813F0400F6D
:1031F0001DD0D4F89C30B3F5006F00F0BA8000F217
:10320000A9804BB1B3F5806F40F0A180002104F19B
:103210000800FFF7AFFB0546002D40F0B180914A52
:10322000936D23F4E053D4F89C100B43936523680B
:1032300013F0800F1DD0D4F8A030B3F5804F00F00C
:10324000B38000F2A2804BB1B3F5005F40F09A80EA
:10325000002104F10800FFF78DFB0546002D40F02A
:10326000AA80804A936D23F46043D4F8A0100B43E6
:103270009365236813F0080F0DD0D4F88430B3F5AC
:10328000805F00F09A80774A536D23F44053D4F85E
:1032900084100B435365236813F0100F0DD0D4F83E
:1032A0009830B3F5807F00F092806E4A936D23F4DE
:1032B0004073D4F898100B439365236813F4002FE0
:1032C00000F09A80D4F8A430B3F5803F00F08980F4
:1032D000B3F5003F08D0002B40F08A80002104F1B4
:1032E0000800FFF747FB0546002D40F084805D4A4B
:1032F000936D23F44033D4F8A4100B4393657BE023
:10330000012104F12800FFF7B9FB054640E701263B
:10331000354648E72E4646E70126354665E7B3F1D0
:10332000804F3FF457AFB3F1A04F3FF453AFB3F129
:10333000405F3FF44FAF0126354656E7022104F1C6
:103340002800FFF79BFB054644E72E464DE7012684
:1033500035466CE7B3F5805F3FF45EAFB3F5A05F31
:103360003FF45AAFB3F5406F3FF456AF01263546F0
:103370005DE7022104F12800FFF780FB05464BE7DB
:103380002E4654E70126354673E7B3F5004F3FF468
:1033900065AFB3F5204F3FF461AFB3F5C04F3FF4D5
:1033A0005DAF0126354664E7022104F12800FFF7EE
:1033B00065FB054652E72E465BE7022104F1280033
:1033C000FFF75CFB00283FF45EAF01265BE70221BC
:1033D00004F12800FFF752FB00283FF466AF0126F6
:1033E00063E7022104F12800FFF748FB05467BE76D
:1033F0000126354600E02E46236813F4802F18D0AE
:10340000D4F88830B3F5001F1FD0B3F5401F07D0A4
:10341000B3F5801F20D1134AD36A43F40033D3623B
:10342000EDB9104A536D23F44013D4F888100B43C0
:103430005365236813F4803F2CD0236DA3B1B3F5FB
:10344000803F1FD00126354624E0012104F12800E9
:10345000FFF714FB0546E3E701263546E9E72E466C
:10346000E7E700BF00440258704AD36A43F40033D0
:10347000D36275B96D4AD36C23F48033216D0B434D
:10348000D36407E0022104F10800FFF773FA054650
:10349000EFE72E46236813F0005F11D1236813F481
:1034A000003F28D0D4F88030B3F5807F14D010D9F5
:1034B000B3F5007F15D0B3F5407F12D001261AE096
:1034C000022104F12800FFF7D9FA0028E6D00126EE
:1034D000E4E733B101260EE0544AD36A43F40033E3
:1034E000D362002D69D1514A536D23F44073D4F84F
:1034F00080100B435365236813F4801F06D04B4A9A
:10350000136D23F00043616F0B431365236813F0C1
:10351000805F07D0454A136923F48043D4F8B8107C
:103520000B431361236813F4001F06D03F4A136D49
:1035300023F08073E16E0B431365236813F0804F13
:1035400009D03A4B1A6922F400421A611A69D4F878
:10355000BC100A431A612368002B06DA334AD36C85
:1035600023F04053616D0B43D364236813F4000FC1
:1035700007D02E4A536D23F44003D4F88C100B432C
:103580005365636813F0010F19D1636813F0020FDC
:103590001ED1636813F0040F23D1636813F0080F82
:1035A00028D1636813F0100F2DD1636813F0200F3A
:1035B00032D106B101263046F8BD2E469BE70021E8
:1035C00004F10800FFF7D6F90028DED00646DCE754
:1035D000012104F10800FFF7CDF90028D9D00646F3
:1035E000D7E7022104F10800FFF7C4F90028D4D07E
:1035F0000646D2E7002104F12800FFF73FFA002831
:10360000CFD00646CDE7012104F12800FFF736FAB6
:103610000028CAD00646C8E7022104F12800FFF7B7
:103620002DFA0028C5D00126C5E700BF0044025886
:1036300008B5FFF741F9054B1B6AC3F30213044AAF
:10364000D35C03F01F03D84008BD00BF00440258FC
:1036500090D4000810B4794B9A6A9C6AC4F3053C74
:10366000D96AC1F30011DB6BC3F3CC0301FB03F395
:1036700014F47C3F00F0DD8002F0030207EE903A84
:10368000F8EE677A012A4BD0022A00F09880002ACF
:1036900040F0B280694B1B6813F0200F23D06749BC
:1036A0000A68C2F3C102664BD34007EE103AF8EE47
:1036B000476A07EE10CAB8EE476A86EE867A8B6BC9
:1036C000C3F3080306EE903AF8EE666A9FED5D6A72
:1036D00067EE867A76EEA77AF7EE006A77EEA67A3C
:1036E00027EE277A38E007EE10CAF8EE476A9FED1A
:1036F000566A86EE267A514B9B6BC3F3080306EE9F
:10370000903AF8EE666A9FED4F6A67EE867A76EE3B
:10371000A77AF7EE006A77EEA67A27EE277A1BE003
:1037200007EE10CAF8EE476A9FED486A86EE267AE1
:10373000424B9B6BC3F3080306EE903AF8EE666AC1
:103740009FED406A67EE867A76EEA77AF7EE006A1A
:1037500077EEA67A27EE277A384A936BC3F346238F
:1037600007EE903AF8EE677AF7EE006A77EEA67AFF
:1037700087EE276ABCEEC66A80ED006A936BC3F3DE
:10378000064307EE903AF8EE677A77EEA67A87EE70
:10379000276ABCEEC66A80ED016A936BC3F30663C9
:1037A00007EE903AF8EE677A77EEA67AC7EE276AC8
:1037B000FCEEE66AC0ED026A5DF8044B704707EE66
:1037C00010CAF8EE476A9FED226A86EE267A1B4BF6
:1037D0009B6BC3F3080306EE903AF8EE666A9FED22
:1037E000196A67EE867A76EEA77AF7EE006A77EEC8
:1037F000A67A27EE277AAFE707EE10CAF8EE476AF7
:103800009FED126A86EE267A0C4B9B6BC3F308037E
:1038100006EE903AF8EE666A9FED0A6A67EE867ADF
:1038200076EEA77AF7EE006A77EEA67A27EE277A89
:1038300092E70023036043608360BDE700440258C1
:103840000090D003000000390024744C0024744A16
:1038500020BCBE4B10B4794B9A6A9C6AC4F3055CD9
:10386000D96AC1F300215B6CC3F3CC0301FB03F302
:1038700014F07C7F00F0DD8002F0030207EE903A46
:10388000F8EE677A012A4BD0022A00F09880002ACD
:1038900040F0B280694B1B6813F0200F23D06749BA
:1038A0000A68C2F3C102664BD34007EE103AF8EE45
:1038B000476A07EE10CAB8EE476A86EE867A0B6C46
:1038C000C3F3080306EE903AF8EE666A9FED5D6A70
:1038D00067EE867A76EEA77AF7EE006A77EEA67A3A
:1038E00027EE277A38E007EE10CAF8EE476A9FED18
:1038F000566A86EE267A514B1B6CC3F3080306EE1C
:10390000903AF8EE666A9FED4F6A67EE867A76EE39
:10391000A77AF7EE006A77EEA67A27EE277A1BE001
:1039200007EE10CAF8EE476A9FED486A86EE267ADF
:10393000424B1B6CC3F3080306EE903AF8EE666A3E
:103940009FED406A67EE867A76EEA77AF7EE006A18
:1039500077EEA67A27EE277A384A136CC3F346230C
:1039600007EE903AF8EE677AF7EE006A77EEA67AFD
:1039700087EE276ABCEEC66A80ED006A136CC3F35B
:10398000064307EE903AF8EE677A77EEA67A87EE6E
:10399000276ABCEEC66A80ED016A136CC3F3066346
:1039A00007EE903AF8EE677A77EEA67AC7EE276AC6
:1039B000FCEEE66AC0ED026A5DF8044B704707EE64
:1039C00010CAF8EE476A9FED226A86EE267A1B4BF4
:1039D0001B6CC3F3080306EE903AF8EE666A9FED9F
:1039E000196A67EE867A76EEA77AF7EE006A77EEC6
:1039F000A67A27EE277AAFE707EE10CAF8EE476AF5
:103A00009FED126A86EE267A0C4B1B6CC3F30803FB
:103A100006EE903AF8EE666A9FED0A6A67EE867ADD
:103A200076EEA77AF7EE006A77EEA67A27EE277A87
:103A300092E70023036043608360BDE700440258BF
:103A40000090D003000000390024744C0024744A14
:103A500020BCBE4B10B4794B9A6A9C6AC4F3051C17
:103A6000D96A01F001015B6BC3F3CC0301FB03F3E3
:103A700014F47C7F00F0DD8002F0030207EE903A40
:103A8000F8EE677A012A4BD0022A00F09880002ACB
:103A900040F0B280694B1B6813F0200F23D06749B8
:103AA0000A68C2F3C102664BD34007EE103AF8EE43
:103AB000476A07EE10CAB8EE476A86EE867A0B6B45
:103AC000C3F3080306EE903AF8EE666A9FED5D6A6E
:103AD00067EE867A76EEA77AF7EE006A77EEA67A38
:103AE00027EE277A38E007EE10CAF8EE476A9FED16
:103AF000566A86EE267A514B1B6BC3F3080306EE1B
:103B0000903AF8EE666A9FED4F6A67EE867A76EE37
:103B1000A77AF7EE006A77EEA67A27EE277A1BE0FF
:103B200007EE10CAF8EE476A9FED486A86EE267ADD
:103B3000424B1B6BC3F3080306EE903AF8EE666A3D
:103B40009FED406A67EE867A76EEA77AF7EE006A16
:103B500077EEA67A27EE277A384A136BC3F346230B
:103B600007EE903AF8EE677AF7EE006A77EEA67AFB
:103B700087EE276ABCEEC66A80ED006A136BC3F35A
:103B8000064307EE903AF8EE677A77EEA67A87EE6C
:103B9000276ABCEEC66A80ED016A136BC3F3066345
:103BA00007EE903AF8EE677A77EEA67AC7EE276AC4
:103BB000FCEEE66AC0ED026A5DF8044B704707EE62
:103BC00010CAF8EE476A9FED226A86EE267A1B4BF2
:103BD0001B6BC3F3080306EE903AF8EE666A9FED9E
:103BE000196A67EE867A76EEA77AF7EE006A77EEC4
:103BF000A67A27EE277AAFE707EE10CAF8EE476AF3
:103C00009FED116A86EE267A0C4B1B6BC3F30803FB
:103C100006EE903AF8EE666A9FED0A6A67EE867ADB
:103C200076EEA77AF7EE006A77EEA67A27EE277A85
:103C300092E70023036043608360BDE700440258BD
:103C40000090D003000000390024744C0024744A12
:103C500020BCBE4B00B58BB0A0F580730B432DD0BC
:103C6000A0F500730B437CD0A0F580630B4300F0FC
:103C7000D080A0F500630B4300F02881A0F58053AD
:103C80000B4300F08781A0F500530B4300F0DF8168
:103C9000A0F500230B4300F02882A0F580330B43EE
:103CA00000F06B82A0F580430B4300F08D82A0F5FD
:103CB0000040084300F0D68200200CE0934B1B6DBF
:103CC00003F00703042B00F2F782DFE803F007118B
:103CD0001B0325008E480BB05DF804FB8B4B186866
:103CE00010F00070F7D007A8FFF7B4FE0898F2E7CD
:103CF000864B186810F00060EDD004A8FFF7AAFC0E
:103D00000498E8E7814B186810F00050E3D001A850
:103D1000FFF7A0FD0198DEE77C4AD36C03F0405327
:103D2000126812F0040F07D033B9784B1B68C3F345
:103D3000C1037848D840CEE7744A126812F4807FF5
:103D400003D0B3F1805F00F0B982704A126812F4B8
:103D5000003F00F0B582B3F1005F00F0B3820020B5
:103D6000B9E76A4B1B6D03F4E073802B31D015D992
:103D7000C02B00F0A982B3F5807F1ED1634AD36CBB
:103D800003F04053126812F0040F2DD063BB5F4B59
:103D90001B68C3F3C1035F48D8409CE77BB1402B4D
:103DA00009D15A4B186810F0006094D004A8FFF7AE
:103DB00051FC04988FE700208DE700208BE7534BE0
:103DC000186810F0007086D007A8FFF743FE089827
:103DD00081E74E4B186810F000503FF47CAF01A80B
:103DE000FFF738FD019876E7484A126812F4807FA1
:103DF00003D0B3F1805F00F06982444A126812F484
:103E0000003F00F06582B3F1005F00F063820020A4
:103E100061E73E4B9B6D03F46003B3F5800F35D033
:103E200016D9B3F5C00F00F05782B3F5000F20D1BB
:103E3000364AD36C03F04053126812F0040F30D0AE
:103E40007BBB324B1B68C3F3C1033248D84042E707
:103E50008BB1B3F5001F0AD12C4B186810F000602D
:103E60003FF439AF04A8FFF7F5FB049833E70020CF
:103E700031E700202FE7254B186810F000703FF461
:103E80002AAF07A8FFF7E6FD089824E71F4B18683C
:103E900010F000503FF41FAF01A8FFF7DBFC0198C2
:103EA00019E71A4A126812F4807F03D0B3F1805FD9
:103EB00000F01482154A126812F4003F00F01082DC
:103EC000B3F1005F00F00E82002004E70F4B9B6D02
:103ED00003F0E063B3F1007F3CD01DD9B3F1407F24
:103EE00000F00282B3F1806F27D1084AD36C03F04F
:103EF0004053126812F0040F37D0002B35D1034B1A
:103F00001B68C3F3C1030348D840E4E600440258E9
:103F10000080BB000090D0038BB1B3F1807F0AD149
:103F20009A4B186810F000603FF4D5AE04A8FFF774
:103F300091FB0498CFE60020CDE60020CBE6934B22
:103F4000186810F000703FF4C6AE07A8FFF782FDB6
:103F50000898C0E68D4B186810F000503FF4BBAED7
:103F600001A8FFF777FC0198B5E6884A126812F4B9
:103F7000807F03D0B3F1805F00F0B881834A12687C
:103F800012F4003F00F0B481B3F1005F00F0B281A1
:103F90000020A0E67D4B1B6D03F4E043B3F5005F0A
:103FA00035D016D9B3F5405F00F0A681B3F5804F48
:103FB00020D1764AD36C03F04053126812F0040FFC
:103FC00030D07BBB714B1B68C3F3C1037048D84032
:103FD00081E68BB1B3F5805F0AD16C4B186810F0A5
:103FE00000603FF478AE04A8FFF734FB049872E653
:103FF000002070E600206EE6644B186810F0007038
:104000003FF469AE07A8FFF725FD089863E65F4B0C
:10401000186810F000503FF45EAE01A8FFF71AFCDC
:10402000019858E6594A126812F4807F03D0B3F120
:10403000805F00F06381554A126812F4003F00F07F
:104040005F81B3F1005F00F05D81002043E64F4BDC
:104050001B6D03F4E023B3F5403F32D00BD8B3F52A
:10406000803F18D0B3F5003F20D013B9FEF746FCCF
:1040700031E600202FE6B3F5802F2ED0B3F5A02F28
:1040800007D1424B186810F400303FF424AE414889
:1040900021E600201FE63D4B186810F000603FF459
:1040A0001AAE04A8FFF7D6FA059814E6374B18683D
:1040B00010F000503FF40FAE01A8FFF7CBFB0298C1
:1040C00009E6324B186810F004003FF404AE1B6898
:1040D000C3F3C1032E48D840FDE52C4B186810F4FB
:1040E00080703FF4F8AD2C48F5E5284B9B6D03F448
:1040F0004033B3F5803F10D0B3F5003F18D0002B0C
:1041000040F00281214B186810F000603FF4E3ADED
:1041100004A8FFF79FFA0498DDE51C4B186810F01F
:1041200000503FF4D8AD01A8FFF794FB0398D2E507
:10413000164AD36C03F04053126812F0040F07D0F4
:1041400033B9124B1B68C3F3C1031148D840C2E511
:104150000E4A126812F4807F03D0B3F1805F00F042
:10416000D5800A4A126812F4003F00F0D180B3F102
:10417000005F00F0CF800020ADE5044BDB6C13F452
:1041800080330BD0ABB90020A5E500BF0044025836
:104190000090D00340787D0100093D005F4B186816
:1041A00010F000703FF497AD07A8FFF753FC089894
:1041B00091E55A4B186810F000603FF48CAD04A8EC
:1041C000FFF748FA069886E5544B9B6D03F0E043F1
:1041D000B3F1405F32D00BD8B3F1805F18D0B3F1A8
:1041E000005F20D013B9FFF723FA74E5002072E5D1
:1041F000B3F1804F2ED0B3F1A04F07D1474B1868D1
:1042000010F400303FF467AD454864E5002062E5F6
:10421000424B186810F000603FF45DAD04A8FFF752
:1042200019FA059857E53D4B186810F000503FF417
:1042300052AD01A8FFF70EFB02984CE5374B18680A
:1042400010F004003FF447AD1B68C3F3C1033548C9
:10425000D84040E5314B186810F480703FF43BAD16
:10426000314838E52D4B1B6D03F04053B3F1805FAF
:104270000CD0B3F1005F14D0002B4DD1274B186840
:1042800010F400303FF427AD254824E5234B18688F
:1042900010F000703FF41FAD07A8FFF7DBFB089894
:1042A00019E51E4B186810F000603FF414AD04A827
:1042B000FFF7D0F905980EE500200CE51A480AE54D
:1042C000002008E5164806E5184804E5164802E50A
:1042D000002000E51248FEE41448FCE41248FAE429
:1042E0000020F8E40E48F6E41048F4E40E48F2E446
:1042F0000020F0E40A48EEE40C48ECE40A48EAE462
:104300000020E8E40648E6E40020E4E40648E2E4AD
:104310000020E0E40248DEE40020DCE4004402582F
:1043200040787D010090D00300093D000080BB0073
:10433000F0B583B000236BE085685E000324B440D1
:1043400025EA0405CC68B4402C438460456825EA1E
:104350000C054C68C4F300149C402C43446069E095
:10436000DD08083550F8254003F0070C4FEA8C0CA7
:104370004FF00F0E0EFA0CFE24EA0E0E0C6904FA32
:104380000CF444EA0E0440F825406BE0092400E0F8
:10439000002404FA0EF42C430CF1020C694D45F88C
:1043A0002C404FF0B0442568D44325EA02064F68FC
:1043B00017F4801F01D042EA05064FF0B0452E6089
:1043C0006D6804EA05064F6817F4001F01D042EA41
:1043D00005064FF0B0456E60D5F8845004EA050636
:1043E0004F6817F4003F01D042EA05064FF0B04590
:1043F000C5F88460D5F880502C404E6816F4803F94
:1044000001D042EA05044FF0B042C2F880400133C7
:104410000A6832FA03F400F092804FF0010C0CFAB3
:1044200003FC1CEA0202F2D04C6804F00304013CD5
:10443000012C81D94C6804F00304032C0CD0C4680F
:104440005D004FF0030C0CFA05FC24EA0C0C8C68A0
:10445000AC4044EA0C04C4604C6804F00304022C31
:104460003FF47EAF04684FEA430E4FF0030C0CFAA2
:104470000EFC24EA0C0C4C6804F0030404FA0EF45D
:1044800044EA0C0404604C6814F4403FBFD02E4C46
:10449000D4F8F45045F00205C4F8F450D4F8F440D0
:1044A00004F002040194019C4FEA930C0CF1020504
:1044B000244C54F8255003F0030E4FEA8E0E0F24BF
:1044C00004FA0EF425EA0405204CA0423FF460AF44
:1044D00004F58064A04222D004F58064A04220D07C
:1044E00004F58064A0421ED004F58064A0421CD074
:1044F00004F58064A0421AD004F58064A04218D06C
:1045000004F58064A04216D004F58064A04214D063
:1045100004F58064A0423FF439AF0A2439E701244E
:1045200037E7022435E7032433E7042431E7052481
:104530002FE706242DE707242BE7082429E703B0FB
:10454000F0BD00BF000400580044025800000258AB
:104550000369194201D001207047002070470AB159
:1045600081617047090481617047436901EA030270
:1045700021EA030141EA024181617047F0B4876D8D
:104580000468664E664DAC4218BFB44242D018353E
:10459000AC423FD01835AC423CD01835AC4239D093
:1045A0001835AC4236D01835AC4233D01835AC4251
:1045B00030D005F55675AC422CD01835AC4229D018
:1045C0001835AC4226D01835AC4223D01835AC4251
:1045D00020D01835AC421DD01835AC421AD0183551
:1045E000AC4217D04F4DAC4214D01435AC4211D070
:1045F0001435AC420ED01435AC420BD01435AC425D
:1046000008D01435AC4205D01435AC4202D0143574
:10461000AC4207D1446E856E6560C46E14B1046F00
:10462000456F656004683D4E3D4DAC4218BFB442D5
:1046300052D01835AC424FD01835AC424CD018355A
:10464000AC4249D01835AC4246D01835AC4243D0C4
:104650001835AC4240D005F55675AC423CD0183503
:10466000AC4239D01835AC4236D01835AC4233D0D4
:104670001835AC4230D01835AC422DD01835AC428C
:104680002AD01835AC4227D0264E274DAC4218BF51
:10469000B44211D0254DAC420ED01435AC420BD0F3
:1046A0001435AC4208D01435AC4205D01435AC42B8
:1046B00002D01435AC4224D1C46D04F01F0501248E
:1046C000AC407C60046863608368402B20D0036842
:1046D00099600368DA6014E0C46D04F01F0C3F2495
:1046E00004FA0CF4BC6005682C6824F480242C6067
:1046F000046863608368402B05D003689960036891
:10470000DA60F0BC704703689A600368D960F8E724
:1047100003689A600368D960F3E700BF10000240A5
:1047200028000240085402581C54025830540258C1
:1047300003682749274A934218BF8B422FD018326B
:1047400093422CD01832934229D01832934226D06B
:104750001832934223D01832934220D01832934219
:104760001DD002F55672934219D01832934216D0DA
:104770001832934213D01832934210D01832934219
:104780000DD0183293420AD01832934207D0183213
:10479000934204D023F0FF038365806D704710B40B
:1047A000D9B210390C4AA2FB0142C2F302120B4CDF
:1047B000A25CC2655F2907D96FF3090304338365DF
:1047C000806D5DF8044B70476FF309038365F7E76D
:1047D0001000024028000240ABAAAAAA88D4000810
:1047E00083699BB9836A012B0AD0022B02D00BB1DB
:1047F00000207047C36A13F0807F2AD100207047E1
:10480000C36AB3F1C07F26D000207047B3F5005FC4
:104810000AD0836A022B26D9032B26D1C36A13F050
:10482000807F24D100207047836A032B03D8DFE800
:1048300003F01404140A00207047C36A13F0807F49
:104840000DD100207047C36AB3F1C07F09D00020AA
:1048500070470120704701207047012070470120F8
:1048600070470120704701207047002070470120E9
:104870007047000003682149214A934218BF8B42C8
:1048800027D01432934224D01432934221D01432D0
:1048900093421ED0143293421BD01432934218D04C
:1048A0001432934215D0DAB2103A1649A1FB021223
:1048B000120915491944A8291ED9144B13449B0009
:1048C0000366134B436602F01F0201239340836685
:1048D0007047DBB2083B0F4AA2FB03230E4A02EBF0
:1048E0001312920002660D4A4266C3F304130122BA
:1048F00002FA03F3836670470832DEE70854025871
:104900001C540258ABAAAAAAF0FBFDBF00820010FB
:1049100080080240CDCCCCCC0096001680580258BE
:1049200001794A1E072A2BD830B40368154D164C5E
:10493000A34218BFAB4218D01434A34215D014348C
:10494000A34212D01434A3420FD01434A3420CD08B
:104950001434A34209D01434A34206D00B4B0B44A9
:104960009B00C3660A4B036705E00A4B0B449B00A0
:10497000C366094B036701239340436730BC70470C
:10498000704700BF085402581C5402583F82001060
:10499000400902403F9600164059025870B504463F
:1049A00000F01AFF002C00F0B98105462368534936
:1049B000534A934218BF8B420CBF0121002150D0B3
:1049C000183293424DD0183293424AD01832934253
:1049D00047D01832934244D01832934241D0183213
:1049E00093423ED002F5567293423AD01832934227
:1049F00037D01832934234D01832934231D0183223
:104A000093422ED0183293422BD01832934228D0A2
:104A10001832934225D03B493B4A934218BF8B4200
:104A200000F03481394A934200F0308114329342CD
:104A300000F02C811432934200F02881143293420A
:104A400000F024811432934200F02081143293420A
:104A500000F01C8140236365032384F83530012076
:104A60004AE0022284F83520002284F8342079BB01
:104A7000274A93422CD01832934229D018329342BD
:104A800026D01832934223D01832934220D01832C5
:104A900093421DD002F55672934219D018329342B8
:104AA00016D01832934213D01832934210D01832D5
:104AB00093420DD0183293420AD01832934207D055
:104AC0001832934204D01A6822F001021A6003E0FF
:104AD0001A6822F001021A6023681A6812F0010FA6
:104AE00018D000F079FE431B052BF5D92023636510
:104AF000032384F83530012070BD00BF1000024050
:104B000028000240085402581C54025830540258DD
:104B1000400002401A6882491140A268E0680243DE
:104B20002069024360690243A0690243E0690243CD
:104B3000206A02430A43616A042900F09880794997
:104B400009686FF30F01B1F1005F10D361682E297E
:104B500040F2928052290AD83F2908D33F3972483F
:104B600020FA01F111F0010F01D042F480121A6015
:104B70002668756925F00705636A1D43042B08D173
:104B8000A36A1D43E36A23B12046FFF729FE0028EC
:104B900076D175612046FFF7CBFDE36D03F01F0270
:104BA0003F239340836023686049614A934218BF62
:104BB0008B4242D0183293423FD0183293423CD0BD
:104BC0001832934239D01832934236D01832934279
:104BD00033D01832934230D002F5567293422CD023
:104BE0001832934229D01832934226D01832934279
:104BF00023D01832934220D0183293421DD018325D
:104C000093421AD01832934217D04A4A934214D092
:104C10001432934211D0143293420ED01432934284
:104C20000BD01432934208D01432934205D0143280
:104C3000934202D01432934213D12046FFF71AFE5A
:104C4000A368802B5DD0236E22791A60636EA26EFA
:104C50005A606368013B072B56D90023E36623673C
:104C6000636700206065012384F8353044E7E16A1A
:104C7000206B01430A4362E72929FFF478AF74E708
:104C800040236365012084F8350035E7022284F86B
:104C90003520002284F8342019686FF31011A268BF
:104CA000402A2CD0802A27D00022E06842EAD00295
:104CB000206942EAD002606942EAD002A06942EA71
:104CC000D002E06942EAD002206A42EA10120A43A6
:104CD0001A602268184B1344184AA2FB03231B09CD
:104CE0009B00E3652046FFF723FDE26D02F01F0104
:104CF00001228A40426056E74FF48042D5E71022F5
:104D0000D3E7002363609EE72046FFF709FEE36ECA
:104D100000221A60236F626F5A60A2E70120EBE65F
:104D20003F8010FE0010005C0F030F0010000240D7
:104D30002800024008540258F8ABFDA7CDCCCCCCDB
:104D4000002800F03E8170B5044690F83400012838
:104D500000F03981012084F8340094F83500C0B2A5
:104D6000012807D04FF400636365002384F83430D2
:104D7000012070BD022084F83500002060652068A5
:104D8000924E934DA84218BFB0422FD01835A8427A
:104D90002CD01835A84229D01835A84226D018356D
:104DA000A84223D01835A84220D01835A8421DD0DB
:104DB00005F55675A84219D01835A84216D01835F1
:104DC000A84213D01835A84210D01835A8420DD0EB
:104DD0001835A8420AD01835A84207D01835A8427D
:104DE00004D0056825F00105056003E0056825F09D
:104DF000010505602046FFF7C1FB23687349744A2B
:104E0000934218BF8B4238D01832934235D01832B3
:104E1000934232D0183293422FD0183293422CD082
:104E20001832934229D01832934226D002F5567296
:104E3000934222D0183293421FD0183293421CD092
:104E40001832934219D01832934216D01832934236
:104E500013D01832934210D0183293420DD01A68F2
:104E600022F00E0242F00A021A60236C93B122680B
:104E7000136843F0040313600CE01A6822F01E026A
:104E800042F016021A60236C23B12268136843F0C3
:104E90000803136023684D494D4A934218BF8B4263
:104EA00042D0183293423FD0183293423CD018324D
:104EB000934239D01832934236D01832934233D0CD
:104EC0001832934230D002F5567293422CD01832E9
:104ED000934229D01832934226D01832934223D0DD
:104EE0001832934220D0183293421DD01832934288
:104EF0001AD01832934217D0364A934214D0143243
:104F0000934211D0143293420ED0143293420BD0FC
:104F10001432934208D01432934205D01432934293
:104F200002D0143293420ED1236E1A6812F4803FDD
:104F300003D01A6842F480721A60E36E1BB11A68DB
:104F400042F480721A6023682049214A934218BFB4
:104F50008B4230D0183293422DD0183293422AD04F
:104F60001832934227D01832934224D018329342F9
:104F700021D0183293421ED002F5567293421AD0B5
:104F80001832934217D01832934214D018329342F9
:104F900011D0183293420ED0183293420BD01832EF
:104FA000934208D01832934205D01A6842F00102A9
:104FB0001A600020DDE61A6842F001021A60002043
:104FC000D7E6012070470220D3E600BF1000024060
:104FD0002800024008540258F0B583B0044600236C
:104FE00001937D4B1D687D4BA3FB0535AD0A876D95
:104FF0003E68D7F800C0036879497A48834218BFF1
:105000008B420CBF0120002061D0774A93425ED0D2
:10501000183293425BD01832934258D018329342E0
:1050200055D01832934252D0183293424FD002F5E5
:10503000567293424BD01832934248D01832934262
:1050400045D01832934242D0183293423FD01832A2
:1050500093423CD01832934239D01832934236D022
:105060006249634A934218BF8B4212D0614A93420D
:105070000FD0143293420CD01432934209D0143220
:10508000934206D01432934203D01432934240F03C
:1050900061821A68E16D01F01F010420884010EA66
:1050A0000C0F00F0A78212F0040F00F0A3827860CA
:1050B00012F4004F00F05A8212F4803F40F0508208
:1050C000A36C002B00F046822046984742E2E26D36
:1050D00002F01F0108228A40324241D070BB424A8E
:1050E00093422BD01832934228D01832934225D0C5
:1050F0001832934222D0183293421FD01832934272
:105100001CD002F55672934218D01832934215D033
:105110001832934212D0183293420FD01832934271
:105120000CD01832934209D01832934206D018326C
:10513000934203D01A68C2F3C00202E01A68C2F3B5
:1051400080026AB11A6822F004021A60E36D03F06B
:105150001F0208239340BB60636D43F00103636546
:10516000E26D02F01F0226FA02F313F0010F47D09E
:1051700023681B481B498B4218BF83423CD018311F
:105180008B4239D018318B4236D018318B4233D014
:1051900018318B4230D018318B422DD018318B42D0
:1051A0002AD001F556718B4226D018318B4223D07C
:1051B00018318B4220D018318B421DD018318B42D0
:1051C0001AD018318B4217D018318B4214D01831B5
:1051D0008B4211D01B6813E00C000020B5814E1BE0
:1051E00010000240280002404000024008540258CB
:1051F0001C540258305402585B6913F0800F3BD1A5
:10520000E36D03F01F03042202FA03F333423FD09D
:105210002268964896498A4218BF824234D0183193
:105220008A4231D018318A422ED018318A422BD08E
:1052300018318A4228D018318A4225D018318A4242
:1052400022D001F556718A421ED018318A421BD0F5
:1052500018318A4218D018318A4215D018318A4242
:1052600012D018318A420FD018318A420CD018312E
:105270008A4209D013680BE001239340BB60636D41
:1052800043F002036365BBE7126812F0020F3DD1E1
:10529000E36D03F01F03102202FA03F333425FD0E1
:1052A0002268724872498A4218BF824234D018314B
:1052B0008A4231D018318A422ED018318A422BD0FE
:1052C00018318A4228D018318A4225D018318A42B2
:1052D00022D001F556718A421ED018318A421BD065
:1052E00018318A4218D018318A4215D018318A42B2
:1052F00012D018318A420FD018318A420CD018319E
:105300008A4209D01268C2F3800208E0BB60636D74
:1053100043F004036365BBE71268C2F3C002FAB14D
:10532000BB6023681A6812F4802F0DD01B6813F439
:10533000002F04D1236C9BB12046984710E0A36C4A
:1053400073B1204698470BE01A6812F4807F03D1AE
:105350001A6822F008021A60236C0BB120469847A5
:10536000E36D03F01F03202202FA03F3334200F03F
:10537000938022683D483E498A4218BF82422ED01F
:1053800018318A422BD018318A4228D018318A42EB
:1053900025D018318A4222D018318A421FD01831C4
:1053A0008A421CD001F556718A4218D018318A42BF
:1053B00015D018318A4212D018318A420FD01831D4
:1053C0008A420CD018318A4209D018318A4206D05C
:1053D00018318A4203D01268C2F3400202E0126818
:1053E000C2F30012002A57D0BB6094F83530DBB20C
:1053F000042B0ED023681A6812F4802F3AD01B6851
:1054000013F4002F2DD1636C002B45D02046984714
:1054100042E02268136823F0160313602268536980
:1054200023F080035361236CBBB12268136823F01F
:1054300008031360E36D03F01F023F239340BB603A
:10544000012384F83530002384F83430236D002B99
:1054500000F08080204698477CE0A36C002BE4D1CC
:10546000E8E7E36BC3B12046984715E0100002401F
:10547000280002401A6812F4807F09D11A6822F0CD
:1054800010021A60012384F83530002384F8343088
:10549000E36B0BB120469847636D002B5AD0636DC8
:1054A00013F0010F52D0042384F835302368964955
:1054B000964A934218BF8B422FD0183293422CD079
:1054C0001832934229D01832934226D01832934290
:1054D00023D01832934220D0183293421DD002F5C7
:1054E0005672934219D01832934216D01832934212
:1054F00013D01832934210D0183293420DD0183284
:1055000093420AD01832934207D01832934204D003
:105510001A6822F001021A6003E01A6822F0010200
:105520001A60019B01330193AB4204D823681B68C6
:1055300013F0010FF5D123681B6813F0010F0BD096
:10554000032384F83530002384F83430E36C0BB146
:105550002046984703B0F0BD012384F83530F2E7C8
:10556000236C002BF6D020469847F3E712F0200F6B
:105570003AD123686449654A934218BF8B422FD0C1
:10558000183293422CD01832934229D018329342C9
:1055900026D01832934223D01832934220D01832AA
:1055A00093421DD002F55672934219D0183293429D
:1055B00016D01832934213D01832934210D01832BA
:1055C00093420DD0183293420AD01832934207D03A
:1055D0001832934204D01A6822F004021A6003E0E1
:1055E0001A6822F008021A60236C002BB2D0204601
:1055F0009847AFE70220884010EA0C0F60D012F005
:10560000020F5DD0786012F4004F0ED012F4803F8C
:1056100005D1636C002B9DD0204698479AE7E36B39
:10562000002B97D02046984794E712F0200F40D1E6
:1056300023683549354A934218BF8B422FD0183220
:1056400093422CD01832934229D01832934226D05C
:105650001832934223D01832934220D0183293420A
:105660001DD002F55672934219D01832934216D0CB
:105670001832934213D01832934210D0183293420A
:105680000DD0183293420AD01832934207D0183204
:10569000934204D01A6822F00A021A6003E01A68E2
:1056A00022F014021A60012384F83530002384F8B4
:1056B0003430E36B002B3FF44DAF2046984749E769
:1056C000082000FA01F111EA0C0F3FF443AF12F089
:1056D000080F3FF43FAF1A6822F00E021A60E36D24
:1056E00003F01F03012202FA03F37B60626584F872
:1056F0003520002384F83430E36C002B3FF42AAFCC
:105700002046984726E700BF1000024028000240CC
:10571000134BDB6813F0040F07D1114BDB6803F068
:10572000070383421AD00120704710B50C4AD36892
:1057300023F007030343D36000F04EF80446084B00
:105740005B6813F4005F07D100F046F8001BB0F56A
:105750007A7FF4D9012000E0002010BD00207047BE
:105760000048025810B50320FCF7CCF8FCF75EFEA9
:105770000F498B69C3F303230E4AD35C03F01F0365
:10578000D8408B6903F00F03D35C03F01F0320FAAA
:1057900003F3094A1360094B18600F20FBF7F4FC70
:1057A00010B10124204610BD0446FBF7E9FAF9E7E1
:1057B0000044025890D40008080000200C0000208B
:1057C000034B1B78034A11680B441360704700BFFA
:1057D000000000200C060020014B1868704700BF35
:1057E0000C06002038B50446FFF7F6FF0546B4F175
:1057F000FF3F02D0044B1B781C44FFF7EDFF401B1A
:10580000A042FAD338BD00BF00000020014B186849
:10581000000C70470010005C0B4B1B680B4AA2FB8E
:1058200003235B0A41F2883202FB03F31A46013B71
:105830003AB1426B12F0800FF8D0054B8363002021
:1058400070474FF0004070470C000020D34D6210AD
:10585000C500200084B00DF1040C8CE80E000B464E
:105860001343039A1343049A1343059A134341685D
:10587000034A0A4013434360002004B0704700BF4E
:10588000002CC0FFD0F880007047036843F003038A
:10589000036000207047006800F0030070470000BC
:1058A0000B6883604B688A681343CA6813430A69AC
:1058B0001343C168024A0A401343C3600020704783
:1058C000C0E0FEFF0069C0B2704714304058704716
:1058D0000B6843624B6883628B68CA6813430A692A
:1058E00013434A691343C26A22F0FF021343C3629F
:1058F0000020704710B586B0044600230193029340
:10590000039304934FF48053059301A9FFF7C8FF55
:105910002046FFF781FF06B010BD000070B50546B8
:105920000E46514B1B685149A1FB03135B0A03FB55
:1059300002F21346013A002B5ED06C6B4C4B2340B5
:10594000002BF6D014F4005FF3D16B6B13F0040F4F
:1059500006D16B6B13F0010F05D00120A8634DE059
:105960000420A8634AE0434BAB632846FFF7AAFF35
:10597000B04201D0012041E000212846FFF7A5FFF9
:1059800003463D481840C8B3002B38DB13F0804F66
:1059900038D113F0005F37D113F0805F36D113F0A8
:1059A000006F36D113F0806F36D113F0807F36D17F
:1059B00013F4000F36D113F4800F36D113F4001F07
:1059C00036D113F4801F36D113F4802F36D113F45F
:1059D000003F36D113F4803F36D113F4004F36D157
:1059E00013F4804F36D113F4005F36D113F0080F53
:1059F00036D04FF4000001E04FF0004070BD4FF092
:105A00000070FBE74020F9E78020F7E74FF4807053
:105A1000F4E74FF40070F1E74FF48060EEE74FF4E5
:105A20000060EBE74FF48050E8E74FF40050E5E703
:105A30004FF48040E2E74FF40040DFE74FF40030DE
:105A4000DCE74FF48020D9E74FF40020D6E74FF48D
:105A50008010D3E74FF40010D0E74FF48000CDE77B
:105A60004FF48030CAE700BF0C000020D34D621015
:105A700045002000C500200008E0FFFD30B587B0DC
:105A800004460191102502954FF48073039300237F
:105A900004934FF48053059301A9FFF701FF41F2EE
:105AA000883229462046FFF739FF07B030BD30B5B0
:105AB00087B004460191112502954FF4807303933A
:105AC000002304934FF48053059301A9FFF7E8FEE8
:105AD00041F2883229462046FFF720FF07B030BD4B
